:020000040000FA
:100000000C9462000C948A000C948A000C948A0070
:100010000C948A000C948A000C948A000C948A0038
:100020000C948A000C948A000C948A000C94CB05E2
:100030000C948A000C948A000C948A000C948A0018
:100040000C9481050C948A000C948A000C948A000C
:100050000C948A000C948A000C948A000C948A00F8
:100060000C9487060C948A000000000024002700EE
:100070002A0000000000250028002B0000000000DE
:1000800023002600290004040404040404040202DA
:100090000202020203030303030301020408102007
:1000A0004080010204081020010204081020000012
:1000B0000008000201000003040700000000000027
:1000C0000000A20711241FBECFEFD8E0DEBFCDBFD6
:1000D00011E0A0E0B1E0E6E7F5E102C005900D9285
:1000E000AC34B107D9F722E0ACE4B1E001C01D9215
:1000F000AD37B207E1F710E0C2E6D0E004C02197C7
:10010000FE010E94B30AC136D107C9F70E94340824
:100110000C94B90A0C940000CF92DF92EF92FF92F8
:10012000DC01A03282E0B807D4F5A53BB10514F09C
:10013000A4EBB0E040917B0228E830E0241B3109B9
:1001400047FD3395220F331F220F331F6901330FF1
:10015000EE08FF0840917C0228E532E0241B3109BB
:1001600047FD3395220F331F220F331F032E000C40
:10017000440B550B2C193D094E095F09B7FF02C00E
:10018000B0E0A0E00E946E0A24EB30E040E050E0D6
:100190000E94440AC20ED31EE41EF51ED601E09151
:1001A0007A02EC3080F520917B0288E890E0821B97
:1001B000910927FD9395880F991F880F991FA817FC
:1001C000B90784F020917C0288E592E0821B9109B6
:1001D00027FD9395880F991F880F991FA817B907B6
:1001E0000CF4CD010297880F991F4FB7F8942E2F6A
:1001F00030E0F901EE0FFF1FE20FF31FE253FE4F55
:10020000928381834FBFFF90EF90DF90CF9008954E
:1002100096E0899FD0011124A55FBD4F90967C93F5
:100220006E935F9791E091969C939197E0917802FD
:10023000F091790290917702992339F0309751F03B
:10024000811108C0809127020994309719F05C96BB
:100250008C91FACF0895CF92DF92EF92FF920F9395
:100260001F9396E0899FF0011124E55FFD4F11A2D5
:10027000278D30A12130310551F178F02230310540
:1002800009F451C02330310509F452C01F910F9178
:10029000FF90EF90DF90CF9008956623B9F361E06F
:1002A00070E00E9408012FB7F8948091CA019091E4
:1002B000CB01A091CC01B091CD012FBF80936302FF
:1002C00090936402A0936502B0936602DFCF9FB75C
:1002D000F894C090CA01D090CB01E090CC01F0908E
:1002E000CD019FBF009163021091640220916502CD
:1002F00030916602C01AD10AE20AF30A009175022F
:100300001091760230E020E00C151D052E053F050A
:1003100050F462E070E01F910F91FF90EF90DF903A
:10032000CF900C9408016111B1CF63E070E0F3CF7E
:1003300070E060E0F0CFAF92BF92CF92DF92EF9289
:10034000FF920F931F93CF93DF936C017B018B017F
:10035000040F151FEB015E01AE18BF08C017D107CF
:1003600059F06991D601ED91FC910190F081E02D59
:10037000C6010995892B79F7C501DF91CF911F91AE
:100380000F91FF90EF90DF90CF90BF90AF900895C6
:10039000833081F028F4813099F08230A9F00895FB
:1003A0008730A9F08830C9F08430B1F480918000A2
:1003B0008F7D03C0809180008F77809380000895A7
:1003C00084B58F7784BD089584B58F7DFBCF8091F0
:1003D000B0008F778093B00008958091B0008F7D3A
:1003E000F9CFCF93DF93282F30E0F901E255FF4F8B
:1003F0008491F901E656FF4FD491F901EA57FF4F76
:10040000C491CC23A1F081110E94C801EC2FF0E02F
:10041000EE0FFF1FE458FF4FA591B491EC91ED232F
:1004200081E090E009F480E0DF91CF91089580E0D1
:1004300090E0FACF862F0C94F1011F93CF93DF93B6
:10044000282F30E0F901E255FF4F8491F901E6567B
:10045000FF4FD491F901EA57FF4FC491CC23A9F083
:10046000162F81110E94C801EC2FF0E0EE0FFF1F44
:10047000EE58FF4FA591B4918FB7F894EC911111FC
:1004800008C0D095DE23DC938FBFDF91CF911F9101
:100490000895DE2BF8CF862F642F0C941D02CF9386
:1004A000DF9390E0FC01E656FF4F24918A579F4F5F
:1004B000FC0184918823C9F090E0880F991FFC010A
:1004C000E859FF4FA591B491FC01EE58FF4FC5913B
:1004D000D49161110DC09FB7F8948C91209582231F
:1004E0008C938881282328839FBFDF91CF91089523
:1004F000623051F49FB7F8943C91822F809583230A
:100500008C93E8812E2BEFCF8FB7F894EC912E2BA4
:100510002C938FBFEACF862F642F0C944F023FB7E6
:10052000F8948091BF019091C001A091C101B09158
:10053000C20126B5A89B05C02F3F19F00196A11D49
:10054000B11D3FBFBA2FA92F982F8827BC01CD011D
:10055000620F711D811D911D42E0660F771F881F7C
:10056000991F4A95D1F708958F929F92AF92BF92AB
:10057000CF92DF92EF92FF924B015C010E948F02BB
:100580006B017C010E948F026C197D098E099F0905
:10059000683E734081059105A8F321E0821A910815
:1005A000A108B10888EEC80E83E0D81EE11CF11C3A
:1005B00081149104A104B10429F7FF90EF90DF901A
:1005C000CF90BF90AF909F908F900895209173012E
:1005D000260F3327331F21323105ECF42091970188
:1005E000FC0190E080E0243069F082E00895A09161
:1005F00073012191AC014D5A5E4FA40FB52FB11D6F
:100600002C930196861798F380917301680F60937D
:10061000730180E0089581E0089508958FEF9FEFC2
:1006200008958FEF9FEF089580914C0190E0919590
:10063000819591090895CF93DF93CB01EA01642F4F
:100640000E94E602CE01DF91CF910895CF93DF9310
:100650001F92CDB7DEB7698361E0CE0101960E949B
:10066000E60281E090E00F90DF91CF910895089528
:1006700090E080E00895FC0101900020E9F73197B7
:10068000AF01481B590BBC0183EF91E00C949B0117
:100690001F93CF93DF9385ED8093BC0080914F0132
:1006A00090915001A0915101B09152010796A11D66
:1006B000B11D23E0B695A795979587952A95D1F713
:1006C0002091BC0024FD03C01092970152C04091BC
:1006D0004F01509150016091510170915201452B91
:1006E000462B472B69F30097A105B10541F025E39F
:1006F0002A95F1F700000197A109B109E1CF809196
:100700004E01C1E0C0934D01882399F1D091B8000A
:100710001091BA008091BC008A7B8093BC0060E09D
:1007200082E10E941D0260E083E10E941D0210929E
:100730009701C09399011092980161E082E10E94B3
:100740001D0261E083E10E941D028091B9008E7F4D
:100750008093B9008091B9008D7F8093B90088E4BF
:100760008093B80085E48093BC001093BA00D093C6
:10077000B800DF91CF911F910895CF93DF93EC01E3
:1007800060E08E810E941D0261E08E810E941D0248
:1007900060E08E810E941D028BE891E00197F1F7E5
:1007A000DF91CF910895CF92DF92EF92FF920F9356
:1007B0001F93CF93DF936C017C0187E0E80EF11C5F
:1007C000D0E0C0E0062F10E0B8010C2E02C07595F5
:1007D00067950A94E2F76170F70181917F010E94A9
:1007E0001D022196C430D10579F7C601DF91CF9162
:1007F0001F910F91FF90EF90DF90CF900C94BD036D
:10080000CF92DF92EF92FF920F931F93CF93DF93DC
:10081000EC01F62E642F8C810E941D028D818F3F8A
:1008200019F060E00E941D020F2D10E08F8584FFFB
:1008300025C06E0187E0C80ED11CF12CE12CB80157
:100840000E2C02C0759567950A94E2F76170F60167
:1008500081916F010E941D02FFEFEF1AFF0A88E0ED
:10086000E816F10461F7CE01DF91CF911F910F914E
:10087000FF90EF90DF90CF900C94BD03B80184E01F
:10088000759567958A95E1F7CE010E94D3036F2D88
:10089000CE01DF91CF911F910F91FF90EF90DF90EC
:1008A000CF900C94D30340E0682F83EF91E00C9439
:1008B0000004CF93DF93823029F490910202986074
:1008C00090930202809306021092070280E48093C4
:1008D000080280E18093090280E580930A0261E0CA
:1008E0008091F7010E944F028091F8018F3F19F02B
:1008F00061E00E944F0261E08091F9010E944F0285
:10090000C3EFD1E09E01235F31408091020284FD5C
:100910000BC084E090E021962817390744F461E089
:100920008E810E944F02EECF88E090E0F4CF8BE3FF
:100930009DE00197F1F760E08091F7010E941D02B0
:1009400060E08091F9010E941D028091F8018F3FC3
:1009500019F060E00E941D028091020284FD39C0FE
:1009600063E083EF91E00E94D303CBE4D6E4CE01B1
:100970000197F1F763E083EF91E00E94D3032197A1
:10098000F1F763E083EF91E00E94D30383E592E007
:100990000197F1F762E083EF91E00E94D303809129
:1009A000020280620E94530484E0809303028CE080
:1009B0000E94530481E00E9453048BE39FE101975E
:1009C000F1F782E08093040286E0DF91CF910C94EE
:1009D000530480620E9453048BE496E40197F1F77C
:1009E0008091020280620E94530483E592E00197A5
:1009F000F1F78091020280620E945304D0CFE0910F
:100A00000602E23040F4E150F0E0ED50FE4F848900
:100A100080680C945304E1E0F7CF82E00E9459040F
:100A200089E291E00E943B030E94FF04809103024F
:100A3000982F9260909303028A600E9453048091E1
:100A40007A028C3008F052C061E087E00E944F02C9
:100A500080917A02282F30E0F901EE0FFF1FE20F9C
:100A6000F31FE253FE4F9081907C97609083109229
:100A70007B0210927C022CE0622F0E94A70A829FC8
:100A8000B001112430E020E0AB01420F531FFA0106
:100A9000EE0FFF1FE40FF51FE253FE4F908196FD0E
:100AA00016C02F5F3F4F2C30310571F781110FC0F9
:100AB0001092800082E08093810010928500109255
:100AC0008400B19A80916F00826080936F00E09102
:100AD0007A028E2F90E0FC01EE0FFF1FE80FF91F46
:100AE000E253FE4F808180648083089508951092C0
:100AF000C9010C940D0541E00E94000481E090E0E2
:100B000008951F920F920FB60F9211242F933F93C7
:100B10008F939F93AF93BF938091CA019091CB0124
:100B2000A091CC01B091CD013091BE0123E0230F03
:100B30002D3758F50196A11DB11D2093BE0180935C
:100B4000CA019093CB01A093CC01B093CD018091C9
:100B5000BF019091C001A091C101B091C201019665
:100B6000A11DB11D8093BF019093C001A093C1014D
:100B7000B093C201BF91AF919F918F913F912F91FF
:100B80000F900FBE0F901F90189526E8230F029626
:100B9000A11DB11DD2CF1F920F920FB60F9211243B
:100BA0002F933F934F935F936F937F938F939F9375
:100BB000AF93BF93CF93DF93EF93FF938091BD01EA
:100BC000C091F201D0E087FF24C0109285001092FE
:100BD00084008091BD018F5F8093BD018091BD0134
:100BE000082E000C990B8C179D0724F48091BD01F1
:100BF0008C30C4F1809184009091850004968034FB
:100C00009C4908F47AC080918400909185000496F4
:100C100076C08091BD01082E000C990B8C179D07A2
:100C2000C4F6E091BD018E2FEE0F990BFC01EE0F83
:100C3000FF1FE80FF91FE253FE4F808186FFC9CFE7
:100C4000E091BD018E2FEE0F990BFC01EE0FFF1FFF
:100C5000E80FF91FE253FE4F808160E08F730E941E
:100C60001D02B7CF2091840030918500E091BD0135
:100C70008E2FEE0F990BFC01EE0FFF1FE80FF91FEF
:100C8000E253FE4F81819281820F931F90938900DE
:100C900080938800E091BD018E2FEE0F990BFC012F
:100CA000EE0FFF1FE80FF91FE253FE4F808186FF12
:100CB00011C0E091BD018E2FEE0F990BFC01EE0FDC
:100CC000FF1FE80FF91FE253FE4F808161E08F7331
:100CD0000E941D02FF91EF91DF91CF91BF91AF91E3
:100CE0009F918F917F916F915F914F913F912F9144
:100CF0000F900FBE0F901F90189580E49CE9909381
:100D00008900809388008FEF8093BD01E3CF1F920D
:100D10000F920FB60F9211242F933F934F935F932F
:100D20006F937F938F939F93AF93BF93EF93FF93B3
:100D30008091B900887F803609F44AC0F0F5883286
:100D400009F4A5C018F5803109F499C0B8F48823D6
:100D500009F4F5C0883009F492C0FF91EF91BF917A
:100D6000AF919F918F917F916F915F914F913F9143
:100D70002F910F900FBE0F901F901895883109F496
:100D800086C0803251F78093960114C0803409F4F4
:100D90009BC040F48033B9F38833F9F68093960111
:100DA00085ECAEC0803509F483C0883509F494C061
:100DB000883499F60E944803D0CF883909F48AC054
:100DC00038F5883729F050F4883611F0803729F645
:100DD00083E0809397011092950155C0883809F4FB
:100DE00079C0803919F0803809F0B7CF809195012A
:100DF000803208F06FC0E091950181E08E0F809302
:100E000095018091BB00F0E0EB58FE4F80833BC022
:100E1000803B39F0D0F4803A09F477C0883A09F081
:100E20009CCF84E08093970110927401109273011B
:100E3000F0E0E0E009958091730181110FC081E03D
:100E4000809373011092530109C0803C09F4A8CF2C
:100E5000883C09F4A5CF883B09F07FCFE09174016D
:100E600081E08E0F80937401F0E0ED5AFE4F808197
:100E70008093BB00909174018091730129C080918F
:100E8000BC018093BB0085EC8093BC0066CF909141
:100E9000BB018091BA01981758F5E091BB0181E040
:100EA0008E0F8093BB01F0E0E656FE4F8081E9CFC4
:100EB000E091BB0181E08E0F8093BB018091BB006C
:100EC000F0E0E656FE4F80839091BB018091BA011D
:100ED0009817C8F285E8D8CFE091BB0181E08E0F6A
:100EE0008093BB018091BB00F0E0E656FE4F80830B
:100EF0008091990181115ECF81E08093980184EA0D
:100F00008093BC001092970128CF85EC8093BC00A1
:100F10001092970180919501803230F4E091950113
:100F2000F0E0EB58FE4F10826091950170E085E78C
:100F300091E0F0E0E0E00995109295010ECF10925B
:100F4000960138CF8091F2018C3008F089C091E091
:100F5000980F9093F20180937A0290E0FC01EE0FDB
:100F6000FF1FE80FF91FE253FE4F88EB9BE09283CF
:100F7000818310920D0210921102109210021092B1
:100F8000120283E291E090930C0280930B02E7E25D
:100F9000F2E01082148213821582369682E0E336E4
:100FA000F807B9F783E091E090936E0280936D02A9
:100FB00080E091E09093700280936F0284E08093D0
:100FC000710283E08093720287E091E090936C025B
:100FD00080936B028AE090E0909374028093730296
:100FE00084EF91E0909376028093750210927902DB
:100FF00010927802109267021092680210926902B1
:1010000010926A02109277021092F6011092F50186
:1010100087E191E09093F4018093F3018DE0809358
:10102000F7018FEF8093F8018CE08093F9018BE05A
:101030008093FA018AE08093FB0189E08093FC01B0
:1010400088E08093FD011092FE011092FF01109242
:101050000002109201021092020281E00C945904E5
:101060008FEF80937A0285CF789484B5826084BDB7
:1010700084B5816084BD85B5826085BD85B581609C
:1010800085BD80916E00816080936E00109281001A
:1010900080918100826080938100809181008160D5
:1010A0008093810080918000816080938000809196
:1010B000B10084608093B1008091B0008160809322
:1010C000B00080917A00846080937A0080917A00E9
:1010D000826080937A0080917A00816080937A00A8
:1010E00080917A00806880937A001092C1000E94FB
:1010F0000D05812C912C5401839447E4642E42E029
:10110000742E54EB452E512C51E0509377028FB73B
:10111000F8944091CA015091CB016091CC0170913B
:10112000CD018FBF8091670290916802A091690202
:10113000B0916A02481B590B6A0B7B0B80917302BA
:1011400090917402B0E0A0E084179507A607B70756
:1011500008F015C1C0E080917102C81760F4E091F9
:101160006D02F0916E02EC0FF11D62E080810E9431
:101170004F02CF5FF0CF312C80917202381608F009
:101180005FC0032D10E0E0916F02F0917002E00F5C
:10119000F11F61E080810E944F02E0916F02F091A7
:1011A0007002E00FF11F60E080810E941D02D501F6
:1011B000C401032C04C0880F991FAA1FBB1F0A94E7
:1011C000D2F76C017C01E094F094212C80917102A3
:1011D0002816F8F4C22DD0E0E0916D02F0916E0275
:1011E000EC0FFD1F80810E94F1012496CC0FDD1FC2
:1011F000C55FDD4F892B41F4888199818C299D2918
:10120000998388832394E2CF888199818E219F21BD
:10121000F7CFE0916F02F0917002E00FF11F61E0F3
:1012200080810E941D0280916F0290917002080FD0
:10123000191F60E0F80180810E944F0233949CCF17
:101240000BE012E0E8018F8D98A1892B31F41C8E00
:101250008FEF9FEF9E8F8D8F19A226966C167D06BD
:1012600091F7F12C80917102F81608F053C0E12C2F
:10127000CF2CD12CCC0CDD1CF601ED5EFD4F6F01A7
:1012800020917202E21608F043C0F601608171817C
:101290000E2C02C0769567950A94E2F7F29E9001B3
:1012A00011242E0D311DEBE0F2E080E0458D568DCE
:1012B0002417350709F4E6C08F5F36968A30B1F7F8
:1012C00060FF24C0EBE0F2E090E080E0448D41114B
:1012D00018C0E0916B02F0916C02E20FF31F4081A5
:1012E00056E0589FF001599FF00D1124E55FFD4F26
:1012F000448F368F258F10A2178E61E00E942B013C
:1013000005C0019636968A30910501F7E394B8CF6F
:10131000F394A8CF80E0F80191A19111892F0A5F81
:101320001F4F0C171D07B9F79FB7F8944091CA01DA
:101330005091CB016091CC017091CD019FBF409342
:101340006702509368026093690270936A0288236F
:10135000B1F080912C02882391F080912A02909123
:101360002B02019761F4C0912702C1110BC080E0EC
:1013700090E0892B09F4C8CE0E940000C5CE1092DF
:101380007702F5CFD091C901D430ACF4CA32A9F0BC
:10139000C332D1F041E064E283EF91E00E940004A7
:1013A000ED2F0D2E000CFF0BEB53FE4FC083DF5FC4
:1013B000D093C901DCCFCA3229F40E94FF040E94F5
:1013C0007705D5CFC33299F68091C501813309F0F5
:1013D0004CC08091C601823309F047C08091C7019B
:1013E000833309F042C08091C8018433F1F5109233
:1013F000C4011092C3018091C3019091C401853B47
:101400009105F4F40E94FF048AE391E00E943B03FB
:101410008091C3019091C4010E948C0069E170E049
:1014200080E090E00E94B4020E9477058091C301A1
:101430009091C40101969093C4018093C301DBCFC6
:101440005092C4014092C301C091C301D091C40124
:10145000D7FD8DCFCE010E948C000E94FF04219702
:10146000D093C401C093C301EFCF0E94FF0484E472
:1014700091E00E943B0368EE73E080E090E00E9400
:10148000B40275CF61703ACF052E97FB1EF400941D
:101490000E945B0A57FD07D00E94760A07FC03D022
:1014A0004EF40C945B0A50954095309521953F4F32
:1014B0004F4F5F4F089590958095709561957F4F40
:1014C0008F4F9F4F08950E94980AA59F900DB49F3B
:1014D000900DA49F800D911D11240895B7FF0C94C9
:1014E000630A0E94630A821B930B0895A1E21A2EDD
:1014F000AA1BBB1BFD010DC0AA1FBB1FEE1FFF1FB8
:10150000A217B307E407F50720F0A21BB30BE40B07
:10151000F50B661F771F881F991F1A9469F760954E
:101520007095809590959B01AC01BD01CF01089508
:10153000A29FB001B39FC001A39F700D811D112414
:10154000911DB29F700D811D1124911D0895991B4D
:1015500079E004C0991F961708F0961B881F7A95AA
:10156000C9F780950895EE0FFF1F0590F491E02DC7
:101570000994F894FFCF04050603020100313233C9
:101580003435363738392A3023000000007B059B7C
:101590000138033703000000008B024B021A02508F
:1015A000617373776F7264204163656573733A008A
:1015B000446F6F72204F70656E00496E76616C6982
:0215C0006400C5
:107E0000112484B714BE81FFF0D085E080938100F7
:107E100082E08093C00088E18093C10086E0809377
:107E2000C20080E18093C4008EE0C9D0259A86E02C
:107E300020E33CEF91E0309385002093840096BBD3
:107E4000B09BFECF1D9AA8958150A9F7CC24DD24C4
:107E500088248394B5E0AB2EA1E19A2EF3E0BF2EE7
:107E6000A2D0813461F49FD0082FAFD0023811F036
:107E7000013811F484E001C083E08DD089C08234E0
:107E800011F484E103C0853419F485E0A6D080C0E4
:107E9000853579F488D0E82EFF2485D0082F10E0AE
:107EA000102F00270E291F29000F111F8ED06801E7
:107EB0006FC0863521F484E090D080E0DECF843638
:107EC00009F040C070D06FD0082F6DD080E0C81688
:107ED00080E7D80618F4F601B7BEE895C0E0D1E017
:107EE00062D089930C17E1F7F0E0CF16F0E7DF06D8
:107EF00018F0F601B7BEE89568D007B600FCFDCFD4
:107F0000A601A0E0B1E02C9130E011968C91119780
:107F100090E0982F8827822B932B1296FA010C0160
:107F200087BEE89511244E5F5F4FF1E0A038BF0790
:107F300051F7F601A7BEE89507B600FCFDCF97BE46
:107F4000E89526C08437B1F42ED02DD0F82E2BD052
:107F50003CD0F601EF2C8F010F5F1F4F84911BD097
:107F6000EA94F801C1F70894C11CD11CFA94CF0C13
:107F7000D11C0EC0853739F428D08EE10CD085E9AC
:107F80000AD08FE07ACF813511F488E018D01DD067
:107F900080E101D065CF982F8091C00085FFFCCF94
:107FA0009093C60008958091C00087FFFCCF809118
:107FB000C00084FD01C0A8958091C6000895E0E648
:107FC000F0E098E1908380830895EDDF803219F02E
:107FD00088E0F5DFFFCF84E1DECF1F93182FE3DFCA
:107FE0001150E9F7F2DF1F91089580E0E8DFEE27F6
:047FF000FF270994CA
:027FFE00040479
:00000001FF
